{
  "contractName": "SimpleStorage",
  "abi": [
    {
      "constant": false,
      "inputs": [
        {
          "name": "account",
          "type": "address"
        }
      ],
      "name": "revokeRead",
      "outputs": [],
      "payable": false,
      "stateMutability": "nonpayable",
      "type": "function"
    },
    {
      "constant": false,
      "inputs": [
        {
          "name": "account",
          "type": "address"
        }
      ],
      "name": "grantRead",
      "outputs": [
        {
          "name": "x",
          "type": "address"
        }
      ],
      "payable": false,
      "stateMutability": "nonpayable",
      "type": "function"
    },
    {
      "constant": false,
      "inputs": [
        {
          "name": "account",
          "type": "address"
        }
      ],
      "name": "isOwner",
      "outputs": [
        {
          "name": "x",
          "type": "address"
        }
      ],
      "payable": false,
      "stateMutability": "nonpayable",
      "type": "function"
    },
    {
      "constant": false,
      "inputs": [
        {
          "name": "account",
          "type": "address"
        }
      ],
      "name": "grantOwnership",
      "outputs": [
        {
          "name": "",
          "type": "address"
        }
      ],
      "payable": false,
      "stateMutability": "nonpayable",
      "type": "function"
    },
    {
      "constant": true,
      "inputs": [
        {
          "name": "x",
          "type": "string"
        }
      ],
      "name": "_owner",
      "outputs": [
        {
          "name": "",
          "type": "address"
        }
      ],
      "payable": false,
      "stateMutability": "view",
      "type": "function"
    },
    {
      "constant": false,
      "inputs": [
        {
          "name": "x",
          "type": "string"
        }
      ],
      "name": "sethash",
      "outputs": [
        {
          "name": "",
          "type": "address"
        }
      ],
      "payable": false,
      "stateMutability": "nonpayable",
      "type": "function"
    },
    {
      "constant": true,
      "inputs": [
        {
          "name": "account",
          "type": "address"
        }
      ],
      "name": "_creator",
      "outputs": [
        {
          "name": "",
          "type": "address"
        }
      ],
      "payable": false,
      "stateMutability": "view",
      "type": "function"
    },
    {
      "inputs": [
        {
          "name": "account",
          "type": "address"
        }
      ],
      "payable": false,
      "stateMutability": "nonpayable",
      "type": "function",
      "constant": false,
      "name": "hasRead",
      "outputs": [
        {
          "name": "",
          "type": "bool"
        }
      ]
    },
    {
      "inputs": [],
      "payable": false,
      "stateMutability": "nonpayable",
      "type": "function",
      "constant": false,
      "name": "getHash",
      "outputs": [
        {
          "name": "x",
          "type": "string"
        }
      ]
    },
    {
      "inputs": [],
      "payable": false,
      "stateMutability": "nonpayable",
      "type": "constructor"
    }
  ],
  "bytecode": "0x6060604052341561000f57600080fd5b336000806101000a81548173ffffffffffffffffffffffffffffffffffffffff021916908373ffffffffffffffffffffffffffffffffffffffff16021790555033600160006101000a81548173ffffffffffffffffffffffffffffffffffffffff021916908373ffffffffffffffffffffffffffffffffffffffff1602179055506060604051908101604052806001151581526020016001151581526020016001151581525060036000600160009054906101000a900473ffffffffffffffffffffffffffffffffffffffff1673ffffffffffffffffffffffffffffffffffffffff1673ffffffffffffffffffffffffffffffffffffffff16815260200190815260200160002060008201518160000160006101000a81548160ff02191690831515021790555060208201518160000160016101000a81548160ff02191690831515021790555060408201518160000160026101000a81548160ff021916908315150217905550905050610958806101886000396000f300606060405260043610610099576000357c0100000000000000000000000000000000000000000000000000000000900463ffffffff168063607360d31461009e57806370b8cdd5146100d75780638f32d59b14610110578063acfd82f214610165578063b2bdfa7b1461019e578063b63d194f146101f3578063bc8bde6414610250578063c30fc492146102a5578063d13319c4146102f6575b600080fd5b34156100a957600080fd5b6100d5600480803573ffffffffffffffffffffffffffffffffffffffff16906020019091905050610384565b005b34156100e257600080fd5b61010e600480803573ffffffffffffffffffffffffffffffffffffffff169060200190919050506104aa565b005b341561011b57600080fd5b6101236105d0565b604051808273ffffffffffffffffffffffffffffffffffffffff1673ffffffffffffffffffffffffffffffffffffffff16815260200191505060405180910390f35b341561017057600080fd5b61019c600480803573ffffffffffffffffffffffffffffffffffffffff169060200190919050506105fa565b005b34156101a957600080fd5b6101b161069a565b604051808273ffffffffffffffffffffffffffffffffffffffff1673ffffffffffffffffffffffffffffffffffffffff16815260200191505060405180910390f35b34156101fe57600080fd5b61024e600480803590602001908201803590602001908080601f016020809104026020016040519081016040528093929190818152602001838380828437820191505050505050919050506106c0565b005b341561025b57600080fd5b6102636106da565b604051808273ffffffffffffffffffffffffffffffffffffffff1673ffffffffffffffffffffffffffffffffffffffff16815260200191505060405180910390f35b34156102b057600080fd5b6102dc600480803573ffffffffffffffffffffffffffffffffffffffff169060200190919050506106ff565b604051808215151515815260200191505060405180910390f35b341561030157600080fd5b610309610769565b6040518080602001828103825283818151815260200191508051906020019080838360005b8381101561034957808201518184015260208101905061032e565b50505050905090810190601f1680156103765780820380516001836020036101000a031916815260200191505b509250505060405180910390f35b600160009054906101000a900473ffffffffffffffffffffffffffffffffffffffff1673ffffffffffffffffffffffffffffffffffffffff163373ffffffffffffffffffffffffffffffffffffffff161415156103e057600080fd5b60606040519081016040528060011515815260200160001515815260200160001515815250600360008373ffffffffffffffffffffffffffffffffffffffff1673ffffffffffffffffffffffffffffffffffffffff16815260200190815260200160002060008201518160000160006101000a81548160ff02191690831515021790555060208201518160000160016101000a81548160ff02191690831515021790555060408201518160000160026101000a81548160ff02191690831515021790555090505050565b600160009054906101000a900473ffffffffffffffffffffffffffffffffffffffff1673ffffffffffffffffffffffffffffffffffffffff163373ffffffffffffffffffffffffffffffffffffffff1614151561050657600080fd5b60606040519081016040528060011515815260200160011515815260200160001515815250600360008373ffffffffffffffffffffffffffffffffffffffff1673ffffffffffffffffffffffffffffffffffffffff16815260200190815260200160002060008201518160000160006101000a81548160ff02191690831515021790555060208201518160000160016101000a81548160ff02191690831515021790555060408201518160000160026101000a81548160ff02191690831515021790555090505050565b6000600160009054906101000a900473ffffffffffffffffffffffffffffffffffffffff16905090565b600160009054906101000a900473ffffffffffffffffffffffffffffffffffffffff1673ffffffffffffffffffffffffffffffffffffffff163373ffffffffffffffffffffffffffffffffffffffff1614151561065657600080fd5b80600160006101000a81548173ffffffffffffffffffffffffffffffffffffffff021916908373ffffffffffffffffffffffffffffffffffffffff16021790555050565b600160009054906101000a900473ffffffffffffffffffffffffffffffffffffffff1681565b80600290805190602001906106d6929190610873565b5050565b6000809054906101000a900473ffffffffffffffffffffffffffffffffffffffff1681565b6000600360008373ffffffffffffffffffffffffffffffffffffffff1673ffffffffffffffffffffffffffffffffffffffff16815260200190815260200160002060000160019054906101000a900460ff161561075f5760019050610764565b600090505b919050565b6107716108f3565b60011515600360003373ffffffffffffffffffffffffffffffffffffffff1673ffffffffffffffffffffffffffffffffffffffff16815260200190815260200160002060000160019054906101000a900460ff1615151415156107d357600080fd5b60028054600181600116156101000203166002900480601f0160208091040260200160405190810160405280929190818152602001828054600181600116156101000203166002900480156108695780601f1061083e57610100808354040283529160200191610869565b820191906000526020600020905b81548152906001019060200180831161084c57829003601f168201915b5050505050905090565b828054600181600116156101000203166002900490600052602060002090601f016020900481019282601f106108b457805160ff19168380011785556108e2565b828001600101855582156108e2579182015b828111156108e15782518255916020019190600101906108c6565b5b5090506108ef9190610907565b5090565b602060405190810160405280600081525090565b61092991905b8082111561092557600081600090555060010161090d565b5090565b905600a165627a7a72305820ea919006e258766dadf56013b54343b0e4754cb1f3685e11e183277f9f918a860029",
  "source": "pragma solidity ^0.4.18;\n\ncontract SimpleStorage {\n    address public _creator;\n    address public _owner;\n\n    //Hash of data to IPFS address\n    string storedHash;\n\n    struct Permission {\n      bool exists;\n      bool read;\n      bool write;\n    }\n\n    mapping(address => Permission) _permissions;\n\n    modifier onlyCreator {\n      require(msg.sender == _creator);\n      _;\n    }\n\n    modifier onlyOwner {\n      require(msg.sender == _owner);\n      _;\n    }\n\n    modifier onlyReadPermission {\n      require (_permissions[msg.sender].read == true);\n      _;\n    }\n\n    function SimpleStorage(){\n      _creator = msg.sender;\n      _owner = msg.sender;\n\n      _permissions[_owner] = Permission({\n        exists: true,\n        read: true,\n        write: true\n        });\n    }\n\n    function sethash (string x) public {\n        storedHash = x;\n    }\n\n    function grantOwnership (address account) public onlyOwner {\n      _owner = account;\n    }\n\n    function grantRead (address account) public onlyOwner {\n      _permissions[account] = Permission({\n        exists: true,\n        read: true,\n        write: false\n        });\n    }\n\n    function revokeRead (address account) public onlyOwner {\n      _permissions[account] = Permission({\n        exists: true,\n        read: false,\n        write: false\n        });\n    }\n\n    /*~~~~~~~~~~~~~~~~~Getters~~~~~~~~~~~~~~~~~*/\n\n    function hasRead (address account) public returns (bool) {\n      if(_permissions[account].read) {\n        return true;\n      }\n      return false;\n    }\n\n    function isOwner () public returns(address x){\n      return _owner;\n    }\n\n    function getHash() public onlyReadPermission returns (string x) {\n      return storedHash;\n    }\n}\n",
  "sourcePath": "/Users/karnasethia/Desktop/alice.si/prototype/proto-master/contracts/SimpleStorage.sol",
  "compiler": {
    "name": "solc",
    "version": "0.4.18+commit.9cf6e910.Emscripten.clang"
  },
  "schemaVersion": "1.0.1",
  "updatedAt": "2018-04-28T20:13:12.959Z"
}